:020000021000EC
:10200000480000EA14F09FE514F09FE514F09FE506
:1020100014F09FE514F09FE514F09FE514F09FE5A0
:1020200020230100402301006023010080230100E0
:10203000A0230100C0230100E0230100EFBEADDEBC
:1020400000000FE1C01080E301F021E100100FE17A
:10205000C01001E2C00051E3F8FFFF1A1EFF2FE19C
:1020600000F021E11EFF2FE170009FE5000090E5E8
:1020700000D090E50100BDE838109DE5010011E3B6
:102080002000801300F06FE1FFDFFDE800402DE944
:10209000FF5F2DE900000FE101002DE93C009FE505
:1020A000000090E500D080E5E7E300EB30009FE51D
:1020B00028109FE5000090E5000081E51C009FE5E9
:1020C000000090E500D090E50100BDE838109DE5E6
:1020D000010011E32000801300F06FE1FFDFFDE855
:1020E0008063400014674000000000000000000012
:1020F00000000000000000000000000000000000E0
:1021000030E043001000000030E44300F00F000016
:1021100040E04300F003000020F44300F00700001B
:1021200010FC4300F003000000000FE1C00080E35A
:1021300000F021E100000FE11F00C0E31F0080E379
:1021400000F021E12C001FE52C101FE5001081E0BC
:1021500001D0A0E188239FE5010050E1002080B577
:10216000040080B2FBFFFFBA00000FE11F00C0E3D4
:10217000170080E300F021E170001FE570101FE5FB
:10218000001081E001D0A0E158239FE5010050E15B
:10219000002080B5040080B2FBFFFFBA00000FE111
:1021A0001F00C0E31B0080E300F021E1A4001FE555
:1021B000A4101FE5001081E001D0A0E124239FE5D9
:1021C000010050E1002080B5040080B2FBFFFFBA9F
:1021D00000000FE11F00C0E3120080E300F021E1E6
:1021E000E0001FE5E0101FE5001081E001D0A0E154
:1021F000F4229FE5010050E1002080B5040080B288
:10220000FBFFFFBA00000FE11F00C0E3110080E3F5
:1022100000F021E104011FE504111FE5001081E039
:1022200001D0A0E1C4229FE5010050E1002080B56B
:10223000040080B2FBFFFFBA0080A0E30090A0E39F
:1022400000A0A0E300B0A0E300C0A0E300000FE105
:102250001F00C0E3130080E300F021E154011FE5FB
:1022600054111FE5001081E001D0A0E174229FE528
:10227000010050E1002080B5040080B2FBFFFFBAEE
:102280000E0000EB150000EB0000A0E30010A0E33F
:102290000020A0E30030A0E30040A0E30050A0E352
:1022A0000060A0E30070A0E30080A0E30090A0E342
:1022B00000A0A0E300B0A0E300C0A0E3726F00EABA
:1022C0002C029FE52C129FE52C229FE5020051E194
:1022D0000440903404408134FBFFFF3A1EFF2FE19D
:1022E00018029FE518129FE50130A0E10040A0E12F
:1022F0000020A0E3030054E104208434FCFFFF3AF3
:102300001EFF2FE10000A0E10000A0E10000A0E11D
:102310000000A0E10000A0E10000A0E10000A0E1B9
:102320000E00A0E1D3F021E30E10A0E10D20A0E10A
:10233000496F00EA0000A0E10000A0E10000A0E178
:102340000E00A0E1D3F021E30E10A0E10D20A0E1EA
:10235000416F00EA0000A0E10000A0E10000A0E160
:102360000E00A0E1D3F021E30E10A0E10D20A0E1CA
:10237000396F00EA0000A0E10000A0E10000A0E148
:102380000E00A0E1D3F021E30E10A0E10D20A0E1AA
:10239000316F00EA0000A0E10000A0E10000A0E130
:1023A000FEFFFFEA0000A0E10000A0E10000A0E1C4
:1023B0000000A0E10000A0E10000A0E10000A0E119
:1023C00003002DE90115A0E3000091E510FF2FE1C6
:1023D0000000A0E10000A0E10000A0E10000A0E1F9
:1023E00003002DE91C119FE5000091E510FF2FE18E
:1023F000FEFFFFEA0300FDE80E002DE90D10A0E14D
:102400000CD08DE204204EE200304FE1D3F021E306
:1024100004002DE9F05F2DE97000B1E870002DE9AE
:1024200001002DE908002DE9DC409FE5005094E50E
:1024300000D085E522E300EBD2F021E3D86E00EB7B
:10244000D3F021E387E300EB1000BDE804F06FE177
:10245000FFDFFDE80300FDE800804FE100904FE161
:102460001F8008E2120058E30600001AFF5F2DE902
:10247000DE1F00EBDA6E00EBE21F00EBFF5FBDE852
:1024800009F06FE104F05EE20E002DE90D10A0E10D
:102490000CD08DE204204EE200304FE1D3F021E376
:1024A00004002DE9F05F2DE97000B1E870002DE91E
:1024B00001002DE908002DE94C409FE5005094E50E
:1024C00000D085E5FEE200EBD1F021E3C46E00EB25
:1024D000D3F021E363E300EB1000BDE804F06FE10B
:1024E000FFDFFDE8EEEEEEEEBBBBBBBBCCCCCCCC55
:1024F000DDDDDDDDA01B0500200040006810400090
:10250000681040008C2141000400400080634000BE
:1025100002B4714649084900095C49008E4402BC76
:102520007047C04603B47146490840004900095A43
:1025300049008E4403BC7047012051E21EFF2F0169
:102540003600003A010050E12200009A020011E139
:102550002300000A0E0211E38111A0010830A0033C
:102560000130A013010251E3000051310112A031EA
:102570000332A031FAFFFF3A020151E3000051316A
:102580008110A0318330A031FAFFFF3A0020A0E390
:10259000010050E10100402003208221A10050E110
:1025A000A1004020A3208221210150E121014020EF
:1025B00023218221A10150E1A1014020A3218221F8
:1025C000000050E32332B0112112A011EFFFFF1AD7
:1025D0000200A0E11EFF2FE10100A0030000A013F4
:1025E0001EFF2FE1010851E32118A0211020A02394
:1025F0000020A033010C51E32114A02108208222E5
:10260000100051E32112A02104208222040051E392
:1026100003208282A12082903002A0E11EFF2FE1E0
:102620001FFF2FE10000A0E1000050E30000E013D5
:102630004BE200EA000051E3F8FFFF0A03402DE9F6
:10264000BCFFFFEB0640BDE8920003E0031041E051
:102650001EFF2FE1000051E34300000A01C020E00B
:1026600000106142012051E22700000A0030B0E171
:1026700000306042010053E12600009A020011E19F
:102680002800000A0E0211E38111A0010820A00316
:102690000120A013010251E3030051310112A031C6
:1026A0000222A031FAFFFF3A020151E30300513147
:1026B0008110A0318220A031FAFFFF3A0000A0E390
:1026C000010053E10130432002008021A10053E1C9
:1026D000A1304320A2008021210153E12131432078
:1026E00022018021A10153E1A1314320A2018021D7
:1026F000000053E32222B0112112A011EFFFFF1AB4
:1027000000005CE3000060421EFF2FE100003CE19E
:10271000000060421EFF2FE10000A033CC0FA0019B
:10272000010080031EFF2FE1010851E32118A021C1
:102730001020A0230020A033010C51E32114A0217C
:1027400008208222100051E32112A02104208222BD
:10275000040051E303208282A120829000005CE308
:102760003302A0E1000060421EFF2FE11FFF2FE1B6
:102770000000A0E1000050E30201E0C30201A0B3A9
:10278000F7E100EA000051E3F7FFFF0A03402DE9FB
:10279000B1FFFFEB0640BDE8920003E0031041E00B
:1027A0001EFF2FE17047C046021121E2000000EA3F
:1027B000023123E230402DE98140A0E18350A0E1C5
:1027C000050034E10200300100C0941102C09511EF
:1027D000C4CAF011C5CAF0118C00000AA44AA0E1D5
:1027E000A55A74E0005065B2060000DA054084E0A6
:1027F000022020E0033021E0000022E0011023E06D
:10280000022020E0033021E0360055E33040BD884F
:102810001EFF2F81020111E30116A0E101C6A0E312
:1028200021168CE10100000A000070E20010E1E2D4
:10283000020113E30336A0E123368CE10100000A14
:10284000002072E20030E3E2050034E16900000A92
:10285000014044E220E075E2050000BA12CEA0E19A
:10286000320590E00010A1E2130E90E05315B1E0A4
:10287000060000EA205045E220E08EE2010052E32B
:1028800013CEA0E102C08C23530590E0C31FB1E03A
:10289000025101E20200005A00C07CE20000F0E2B6
:1028A0000010E1E2010651E30F00003A020651E395
:1028B0000600003AA110B0E16000B0E16CC0A0E1F8
:1028C000014084E2842AA0E1010572E36B00002A42
:1028D00002015CE3A0C0B0010000B0E2041AA1E074
:1028E000051081E13040BDE81EFF2FE18CC0B0E152
:1028F0000000B0E00110A1E0010611E3014044E254
:10290000F2FFFF1A000031E31430A0133430A003AB
:102910000010A0010000A0030120A0E1010852E383
:102920002228A02110304322010C52E32224A021AE
:1029300008304322100052E32222A0210430432217
:10294000040052E302304322A2304330A23143E07C
:10295000202053E2070000AA0C2092E2040000DAD3
:1029600014C082E20C2062E2110CA0E13112A0E15D
:10297000040000EA142082E220C062D21112A0E119
:10298000301C81D11002A0D1034054E0041A81A070
:10299000051081A13040BDA81EFF2FA10440E0E139
:1029A0001F4054E20F0000AA0C4094E2060000CA47
:1029B000144084E2202064E23004A0E1110280E1AE
:1029C000311485E13040BDE81EFF2FE10C4064E288
:1029D000202064E23002A0E1110480E10510A0E1B2
:1029E0003040BDE81EFF2FE13104A0E10510A0E159
:1029F0003040BDE81EFF2FE1000034E3013623E242
:102A00000116210201408402015045128FFFFFEAA6
:102A1000C4CAF0E1C5CAF0111D00000A050034E186
:102A2000020030010400000A00C094E10310A0017C
:102A30000200A0013040BDE81EFF2FE1030031E19C
:102A40000010A0130000A0133040BD181EFF2F116E
:102A5000A4CAB0E10400001A8000B0E10110B1E0A6
:102A6000021181233040BDE81EFF2FE1014594E2B1
:102A7000011681323040BD381EFF2F31025101E274
:102A80007F1485E30F1681E30000A0E33040BDE82A
:102A90001EFF2FE1C4CAF0E10310A0110200A01133
:102AA000C5CAF0010130A0110020A011014690E13B
:102AB0000356920103003101021781133040BDE833
:102AC0001EFF2FE1000030E30010A0031EFF2F01C6
:102AD00030402DE9014BA0E3324084E20050A0E3F6
:102AE0000010A0E386FFFFEA000030E30010A0031F
:102AF0001EFF2F0130402DE9014BA0E3324084E25C
:102B0000025110E2000060420010A0E37CFFFFEAE7
:102B10008020B0E1C211A0E16110A0E1020EA0E1AD
:102B2000FF341212FF0433130E1321121EFF2F1154
:102B3000000032E3FF0433131EFF2F0130402DE964
:102B40000E4DA0E3025101E20211C1E36CFFFFEA66
:102B5000012090E11EFF2F0130402DE90050A0E33D
:102B6000060000EA012090E11EFF2F0130402DE910
:102B7000025111E20100005A000070E20010E1E28F
:102B8000014BA0E3324084E221CBB0E144FFFF0AD5
:102B90000320A0E3ACC1B0E103208212ACC1B0E1DC
:102BA00003208212AC2182E0203062E210C3A0E157
:102BB0003002A0E1110380E13112A0E1024084E083
:102BC00037FFFFEA70402DE9FFC0A0E307CC8CE39C
:102BD000214A1CE0235A1C100C0034110C00351142
:102BE0007500000B054084E0036021E08C1AC1E110
:102BF0008C3AC3E1015690E103569211011681E32C
:102C0000013683E31D00000A90C28EE00050A0E36D
:102C100091E2A5E0022106E290E3A5E00060A0E3D6
:102C20009153A6E000003CE301E08E13FF4044E234
:102C3000020C56E3034CC4E20200002A8EE0B0E12D
:102C40000550B5E00660A6E0861582E1A51A81E18F
:102C50008505A0E1AE0A80E18EE5A0E1FDC054E269
:102C6000070C5C831100008A02015EE3A0E0B00162
:102C70000000B0E2041AA1E07040BDE81EFF2FE1A1
:102C8000026106E2011086E1020080E1031021E00A
:102C9000AC4054E00C5074C0041A81C17040BDC8EF
:102CA0001EFF2FC1011681E300E0A0E3014054E2C2
:102CB0005D0000CA360074E30000A0D3021101D207
:102CC0007040BDD81EFF2FD1004064E2204054E286
:102CD0001A0000AA0C4094E20C0000CA144084E2DE
:102CE000205064E21035A0E13004A0E1110580E13C
:102CF000022101E20211C1E3A30F90E03114A2E02E
:102D000083E09EE1A30FC0017040BDE81EFF2FE1EC
:102D10000C4064E2205064E21034A0E13005A0E1F0
:102D2000110480E1021101E2A30F90E00010A1E282
:102D300083E09EE1A30FC0017040BDE81EFF2FE1BC
:102D4000205064E210E58EE13034A0E1113583E1DA
:102D50003104A0E1021101E23104C0E1A30F80E0DF
:102D600083E09EE1A30FC0017040BDE81EFF2FE18C
:102D7000000034E30800001A026101E28000B0E1C3
:102D80000110A1E0010611E301404402FAFFFF0A2D
:102D9000061081E1000035E31EFF2F11026103E2FE
:102DA0008220B0E10330A3E0010613E301504502A5
:102DB000FAFFFF0A063083E11EFF2FE10C0034E129
:102DC000235A0CE00C0035110700000A816090E1E5
:102DD00083609211E5FFFF1A031021E0021101E266
:102DE0000000A0E37040BDE81EFF2FE1816090E18C
:102DF0000200A0010310A001836092111000000ADC
:102E00000C0034E10100001A016690E10C00001A88
:102E10000C0035E10300001A036692E10200A011E4
:102E20000310A0110600001A031021E0021101E2B4
:102E30007F1481E30F1681E30000A0E37040BDE83A
:102E40001EFF2FE17F1481E33E1781E37040BDE850
:102E50001EFF2FE170402DE9FFC0A0E307CC8CE3FB
:102E6000214A1CE0235A1C100C0034110C003511AF
:102E70005E00000B054044E003E021E0035692E1D0
:102E80000116A0E14C00000A0336A0E10152A0E3C4
:102E9000233285E1223C83E10224A0E1215285E135
:102EA000205C85E10064A0E102110EE2030055E11F
:102EB00002005601FD40A4E2034C84E20100002A16
:102EC000A330B0E16220A0E1026056E00350C5E00B
:102ED000A330B0E16220A0E10106A0E302C7A0E3B5
:102EE00002E056E003E0D5E0026046200E50A0214B
:102EF0000C008021A330B0E16220A0E102E056E0A6
:102F000003E0D5E0026046200E50A021AC008021F5
:102F1000A330B0E16220A0E102E056E003E0D5E09A
:102F2000026046200E50A0212C018021A330B0E188
:102F30006220A0E102E056E003E0D5E00260462016
:102F40000E50A021AC01802106E095E10D00000AA1
:102F50000552A0E1265E85E10662A0E18331A0E191
:102F6000A23E83E18221A0E12CC2B0E1DBFFFF1A87
:102F7000010611E30600001A001081E10000A0E341
:102F800002C1A0E3D5FFFFEA010611E300108101B1
:102F90000000A003FDC054E2070C5C8343FFFF8ADE
:102FA00003C055E002C05600A0C0B0010000B0E26E
:102FB000041AA1E07040BDE81EFF2FE102E10EE21D
:102FC00021168EE1AC4094E00C5074C0041A81C10B
:102FD0007040BDC81EFF2FC1011681E300E0A0E3D1
:102FE000014054E231FFFFEA06E085E12FFFFFEAEE
:102FF000235A0CE00C0034E10C00350190FFFF0A6D
:103000000C0034E10600001A014690E18CFFFF1A23
:103010000C0035E183FFFF1A0200A0E10310A0E1DC
:1030200087FFFFEA0C0035E10400001A035692E125
:1030300068FFFF0A0200A0E10310A0E180FFFFEAA1
:10304000816090E18360921148FFFF1A814090E116
:1030500074FFFF1A835092E15EFFFF1A78FFFFEAC8
:1030600000C0E0E3020000EA01C0A0E3000000EAC3
:1030700001C0A0E304C02DE581C0A0E1CCCAF0E10D
:1030800083C0A0E1CCCAF0110E00000A04D08DE28A
:1030900081C090E183C09201030031110200300130
:1030A0000000A0031EFF2F01000070E3030031E1C8
:1030B0000300515102005001C30FA021C30FE031A2
:1030C000010080E31EFF2FE181C0A0E1CCCAF0E146
:1030D0000100001A01C690E10400001A83C0A0E1BB
:1030E000CCCAF0E1E8FFFF1A03C692E1E6FFFF0A4F
:1030F00004009DE41EFF2FE100C0A0E10200A0E15A
:103100000C20A0E101C0A0E10310A0E10C30A0E17F
:10311000FFFFFFEA01402DE9D4FFFFEB000050E381
:10312000000070430140BDE81EFF2FE108E02DE5DF
:10313000F7FFFFEB0100A0030000A01308E09DE4EF
:103140001EFF2FE108E02DE5F1FFFFEB0100A033AA
:103150000000A02308E09DE41EFF2FE108E02DE51C
:10316000EBFFFFEB0100A0930000A08308E09DE4CB
:103170001EFF2FE108E02DE5DEFFFFEB0100A0932D
:103180000000A08308E09DE41EFF2FE108E02DE58C
:10319000D8FFFFEB0100A0330000A02308E09DE46E
:1031A0001EFF2FE18120A0E1022692E20C00002AFE
:1031B0000900005A3E3EE0E3C22A53E00A00009AAA
:1031C0008135A0E1023183E3A03A83E1020111E3FA
:1031D0003302A0E1000060121EFF2FE10000A0E317
:1031E0001EFF2FE1010690E10200001A020111E228
:1031F0000201E0031EFF2FE10000A0E31EFF2FE10C
:103200008120B0E10A00002A022692E20A00002A88
:103210000700005A3E3EE0E3C22A53E00800004A9D
:103220008135A0E1023183E3A03A83E13302A0E1DA
:103230001EFF2FE10000A0E31EFF2FE1010690E139
:103240000100001A0000E0E31EFF2FE10000A0E3F0
:103250001EFF2FE1020120E2000000EA021121E23C
:103260008020B0E18130B0110300321142CCF01166
:1032700043CCF0114700000A222CA0E1233C72E06D
:10328000032082C0011020C0000021C0011020C016
:10329000003063B2190053E31EFF2F81020110E3D7
:1032A000020580E3FF04C0E300006012020111E3A5
:1032B000021581E3FF14C1E300106112030032E143
:1032C0002E00000A012042E2510390E0203063E228
:1032D0001113A0E1023100E20100005A001071E276
:1032E0000000E0E2020550E30B00003A010450E365
:1032F0000400003AA000B0E16110A0E1012082E2E8
:10330000FE0052E33800002A020151E3820BA0E0E4
:103310000100C003030080E11EFF2FE18110B0E136
:103320000000A0E0020510E3012042E2F5FFFF1AD1
:1033300020C6B0E10006A0010C204202FF0810E305
:103340000004A001082042020F0610E30002A001C1
:1033500004204202030510E30001A0010220420202
:10336000020550E38000A0310020D2E2820B80A051
:10337000002062B2030080A1300283B11EFF2FE162
:10338000000032E3021521E2020520020120820240
:1033900001304312CAFFFFEA8130A0E142CCF0E1E4
:1033A00043CCF0111300000A030032E10200000ACE
:1033B000000032E30100A0011EFF2FE1010030E117
:1033C0000000A0131EFF2F11FF0412E30200001AD9
:1033D0008000B0E1020180231EFF2FE1022492E26F
:1033E000020580321EFF2F31023100E27F0483E3A9
:1033F000020580E31EFF2FE1422CF0E10100A01145
:10340000433CF0010010A0118024B0E18134B001F0
:1034100001003001010580131EFF2FE10030A0E301
:10342000010000EA023110E20000604200C0B0E199
:103430001EFF2F014B3483E30010A0E10000A0E346
:103440000F0000EA012090E11EFF2F010030A0E3F1
:10345000050000EA012090E11EFF2F01023111E278
:103460000100005A000070E20010E1E201C0B0E18A
:1034700000C0A0010010A0010000A0035B3483E3A2
:1034800001324302023543E21720A0E301085CE366
:103490002CC8A02110204222010C5CE32CC4A021E6
:1034A0000820422210005CE32CC2A021042042220A
:1034B00004005CE302204222AC204230AC2152E006
:1034C000823B43E0060000BA113283E010C2A0E163
:1034D000202062E202015CE33002A3E00100C003AD
:1034E0001EFF2FE1202082E211C2A0E1202062E233
:1034F0008C0090E13102A3E0AC0FC0011EFF2FE170
:10350000FFC0A0E3A02B1CE0A13B1C100C0032115B
:103510000C0033113E00000A032082E001C020E0CD
:103520008004B0E18114B0111000000A0233A0E35E
:10353000A00283E1A11283E1903181E002010CE25B
:10354000020551E38110A031A31F81318330A031E6
:10355000010080E17F20C2E2FD0052E30F00008AFB
:10356000020153E3820BA0E00100C0031EFF2FE124
:10357000000030E302C10CE28114A001A0048CE140
:10358000A10480E17F2052E2FF3072C2820B80C131
:103590001EFF2FC1020580E30030A0E3012052E2AC
:1035A000350000CA190072E3020100D21EFF2FD1BC
:1035B000002062E28010B0E13112A0E1202062E23E
:1035C00010C2A0E16100B0E10000A0E28C3093E104
:1035D000AC0FC0011EFF2FE1000032E302C100E288
:1035E0008000A0010205100301204202FBFFFF0A38
:1035F0000C0080E1000033E302C101E28110A00170
:103600000205110301304302FBFFFF0A0C1081E1A8
:10361000C0FFFFEAA13B0CE00C0032E10C003311CB
:103620000500000A02C1D0E302C1D113E9FFFF1A6D
:10363000010020E0020100E21EFF2FE1000030E364
:10364000020130130100A001000031130201311307
:103650000D00000A0C0032E10100001A8024B0E1E4
:103660000900001A0C0033E10200001A8134B0E1B5
:103670000100A0110400001A010020E0020100E294
:103680007F0480E3020580E31EFF2FE17F0480E3D7
:10369000030580E31EFF2FE1FFC0A0E3A02B1CE089
:1036A000A13B1C100C0032110C0033113A00000A2F
:1036B000032042E001C020E08114B0E18004A0E1D9
:1036C0001C00000A0132A0E3211283E1203283E1D1
:1036D00002010CE2010053E18330A0317D20A2E21F
:1036E00002C5A0E3010053E1013043200C0080211A
:1036F000A10053E1A1304320AC008021210153E11E
:10370000213143202C018021A10153E1A13143202B
:10371000AC0180210332B0E12CC2B011F0FFFF1ADE
:10372000FD0052E39DFFFF8A010053E1820BA0E000
:103730000100C0031EFF2FE102C10CE2A0048CE1D6
:103740007F2092E2FF3072C2820B80C11EFF2FC128
:10375000020580E30030A0E3012052E28FFFFFEA80
:10376000000032E302C100E28000A0010205100364
:1037700001204202FBFFFF0A0C0080E1000033E35E
:1037800002C101E28110A0010205110301304302D0
:10379000FBFFFF0A0C1081E1C4FFFFEAA13B0CE034
:1037A0000C0032E10500001A8024B0E1B6FFFF1AD8
:1037B0000C0033E1AFFFFF1A0100A0E1B2FFFFEA06
:1037C0000C0033E10300001A8134B0E197FFFF0AD7
:1037D0000100A0E1ACFFFFEA02C1D0E302C1D113B6
:1037E000DEFFFF1A0221D0E3A2FFFF1A0231D1E36C
:1037F0008EFFFF1AA4FFFFEA000053E3000052030C
:103800000400001A000051E3000050030010E01310
:103810000000E0134ADE00EA08D04DE200602DE926
:10382000E7DD00EB04E09DE508D08DE20C00BDE88B
:103830001EFF2FE1F0B54F464646040CA446C0B427
:1038400017043F0C994663467B4305042D0C3E004C
:103850006E431F00140C654363466343ED19340C3B
:1038600064199C46A74203D980235B029846C4444E
:103870004B4643434A433604360C250C2404654426
:10388000A4199918491920000CBC90469946F0BC1F
:1038900004BC1047F0B54D46564644465F46F0B46A
:1038A000924683B004000D0099468B422FD82CD04D
:1038B0004946504637F0E8FC29000600200037F062
:1038C000E3FC331A9846203B9B4600D576E05346EE
:1038D0005A4693401F005346424693401E00AF4253
:1038E0002BD828D05B46A41BBD41002B00DA7BE01F
:1038F000002200230092019301235A469340019332
:1039000001234246934000931BE08242D0D900221B
:103910000023009201930C9B002B01D01C605D6082
:103920000098019903B03CBC90469946A246AB462C
:10393000F0BC04BC1047A342D4D90022002300925B
:1039400001934346002BE6D0FB0772081A43464614
:103950007B080EE0AB4201D1A2420CD8A41A9D41D3
:10396000012024196D410021013E24184D41002EF3
:1039700006D0AB42EED9013E24196D41002EF8D19C
:103980005B460098019900196941002B22DB2B004E
:103990005A46D3402A004446E2401C005B461500CC
:1039A000002B2CDB26009E40330026004746BE40FD
:1039B0003200801A994100900191ACE742462023E1
:1039C0009B1A5246DA40414613004A468A40170085
:1039D0001F4380E7424620239B1A2A0046469A400E
:1039E0002300F3401343D5E74246202300219B1ACE
:1039F0000022009101920122DA40019280E74246C2
:103A0000202326009B1ADE402F00B44697406646CE
:103A10003B003343C9E7C04610402DE9000051E3A5
:103A20000200001A050000EB200080E2010000EA1D
:103A30000100A0E1010000EB1040BDE81EFF2FE1F6
:103A40001C10A0E3010850E32008A021101041221F
:103A5000010C50E32004A02108104122100050E383
:103A60002002A0210410412208208FE20000D2E7AA
:103A7000010080E01EFF2FE10403020201010101A9
:103A8000000000000000000002780B78002A03D03C
:103A9000013001319A42F7D0D01A70470023C25C3E
:103AA0000133002AFBD1581E7047000081C0A0E1FD
:103AB000CCCAF0E10100001A01C690E10600001A2C
:103AC00083C0A0E1CCCAF0E10100001A03C692E174
:103AD0000100001A0000A0E31EFF2FE10100A0E397
:103AE0001EFF2FE110B50300002906D1124A134929
:103AF000134834F0DBFF13481CE007280FD80122DD
:103B00008240C720024211D118210A4207D08522E3
:103B10000A4992000C4834F0C9FF0C480AE00C4AEC
:103B20000649094834F0C2FF0A4803E09E230020FA
:103B30005B000B6010BDC0460602000056B50400D5
:103B40006BB504000700FFFF92B504000100FFFF02
:103B5000170200000300FFFFF0B585B003910500D8
:103B6000161E0B990C9C01D0002C04D18A224149CD
:103B7000920041482DE008230A9A9A43102A09D05E
:103B80000A9B202B06D03D4A3A493D4834F08EFF2F
:103B90003C486CE023681A003B4B9A420BD16368A7
:103BA000032B08D0002B06D0384A3249384834F06D
:103BB0007DFF38485BE0072D28D82800FEF7A8FCD9
:103BC0002E04121E1E261818002906D1324A294931
:103BD000324834F06BFF324849E01022A01834F02C
:103BE00048F91BE00029F8D12E4A22492E48F0E777
:103BF0000029F2D12D4A1F492D48EAE72B002D4A12
:103C00001C492D4834F052FF2C4830E02B002C4A40
:103C100018492C4834F04AFF2B4828E02700243765
:103C2000380000F055FD039B3100E3600A9B38002B
:103C3000DA00039B002B04D1022D02D0AB1F012B15
:103C400002D800F059FD01E000F042FE002809D042
:103C50009C2200902B00920006491C4834F026FF5D
:103C60001B4804E00123084A206225720CC405B0F9
:103C7000F0BDC04632BF0400BFB504002D020000F5
:103C8000E7B504000900FFFF785634123502000042
:103C900011B604000D00FFFF3E02000038B604001C
:103CA0000700FFFF470200005FB60400510200005A
:103CB00086B604005A020000ADB604000100FFFF02
:103CC0005E02000092B504000300FFFFDEB60400B0
:103CD0000000FFFFF0B506008BB00F0015001C1EA2
:103CE00003D1554A5549564814E0002803D000290D
:103CF00001D0002A06D1534A5049534834F0D6FE29
:103D0000524896E0524B22689A4207D0A3224B4970
:103D10005048920034F0CAFE4F488AE063685A1E49
:103D2000012A06D94D4A45494D4834F0BFFE4D4859
:103D30007FE0E268531E9A41237A0592072B5ED8F2
:103D40001800FEF7E5FB0421365C5C5C444F002361
:103D500004932B0708D0A8222B00920018E0049BA4
:103D6000103304939D4261D92000049B049AFB18F0
:103D7000B2180599243001F017FA031EEFD0AA22D9
:103D80002E49920038484DE02B0707D02B00374AC8
:103D90002A49374834F08AFE36484AE0230020009A
:103DA0000191009610332A000599243001F009FA98
:103DB0002CE006AB00932200230020000291019624
:103DC000103320322900243001F0B7FA1EE023001E
:103DD00020000191009610332A000599243001F04B
:103DE0007CFA13E023002000103302910093019627
:103DF00010332A000599243001F034FA06E01E4AF7
:103E00000E491E4834F052FE1D4812E000280DD025
:103E1000E2680A49237A002A02D01A4A1A4801E0C5
:103E20001A4A1B4834F042FE1A4802E002230020DE
:103E300063600BB0F0BDC046830200003FBF0400CA
:103E40000EB704008702000032B704000700FFFF2E
:103E50007856341257B704000400FFFF92020000A6
:103E60007DB704000D00FFFFD2B70400B2020000CE
:103E7000A6B704000900FFFFDA020000FBB7040048
:103E80000100FFFFDF0200002CB80400E102000087
:103E900059B804000000FFFF10B50300002906D147
:103EA0000B220A490A4834F001FE0A480CE0421E7F
:103EB000052A06D919220549074834F0F7FD0748B5
:103EC00002E0E82300200B6010BDC046F9C20400E8
:103ED0005FBF04000700FFFF82BF04000300FFFF75
:103EE000F8B505000C1E06D127222749274834F0D3
:103EF000DDFD274847E0274E0B68B3420BD14B68E6
:103F0000032B08D0002B06D02F221F49224834F063
:103F1000CDFD224837E0681E052827D8FEF7F8FABD
:103F2000030C1326261D27001037380002F036F93F
:103F3000380002F045F921E027001037380003F07F
:103F4000ADFA012105E027001037380003F0A6FA8A
:103F50000021380003F0B4FA10E0270010373800D1
:103F600001F0A4FB380001F0B3FB07E02B00612255
:103F700005490B4834F09AFD0A4804E0012300206B
:103F8000257263602660F8BD0FC30400B0BF040053
:103F90000400FFFF78563412D2BF04000D00FFFF6B
:103FA000FABF04000300FFFF70B50500141E03D123
:103FB00071222649264811E0002808D1002906D0A0
:103FC00076222249234834F071FD23483DE0234BFB
:103FD00022689A4206D07C221C49214834F066FDB2
:103FE000204832E063685A1E012A06D98222174906
:103FF0001D4834F05BFD1D4827E0237A581E052834
:1040000019D8FEF785FA030A0A18181120000A00C9
:104010001030290003F0DAF914E020000A00103013
:10402000290003F021FF0DE020000A0010302900D4
:1040300002F056F806E0B42204490D4834F036FD8B
:104040000C4802E002230020636070BD4FBF0400F3
:1040500029C004004DC004000700FFFF7856341249
:1040600072C004000400FFFF98C004000D00FFFFB1
:10407000C2C004000300FFFF70B502000C1E03D194
:10408000C2222A492A480FE0002806D1C532274912
:10409000284834F00BFD284847E0284B096899422E
:1040A00006D0CA222149264834F000FD25483CE0CC
:1040B0006368591E012906D9D0221C49224834F0D0
:1040C000F5FC224831E0237A581E052822D8FEF755
:1040D0001FFA030D0D2121172500103528001100AE
:1040E00003F07AF9280002F05FF81BE02500103594
:1040F0002800110003F0BEFE280003F0D5F911E0FE
:10410000250010352800110001F0F0FF280001F013
:10411000D3FA07E08122054952000D4834F0C6FC6D
:104120000C4802E00020032309C470BDEAC2040069
:10413000F3C004001EC104000700FFFF78563412CC
:1041400048C104000400FFFF6DC104000D00FFFF23
:1041500096C104000300FFFFF0B50700BBB00D00DF
:1041600016001C00002901D1002A01D1002C07D122
:1041700089222C4952002C4834F098FC2B484FE0FF
:10418000781E052844D8FEF7C3F903161B434330B5
:1041900004A802F003F804A802F012F83200290083
:1041A00004A803F013F904A8210003F015F904A8EA
:1041B00001F0FAFF17E004A803F070F9012103E011
:1041C00004A803F06BF9002104A803F079F9320088
:1041D000290004A803F048FE04A8210003F04AFEC9
:1041E00004A803F061F900201AE004A801F05EFAC7
:1041F00004A801F06DFA3200290004A801F070FF54
:1042000004A8210001F072FF04A801F055FAEAE7C2
:10421000AE223B0052000349054834F047FC0548F4
:104220003BB0F0BDDAC20400C6C104000700FFFFC6
:10423000F1C104000300FFFF10B50300002906D1FF
:104240000B220A490A4834F031FC0A480CE0421EAD
:10425000052A06D919220549074834F027FC0748E2
:1042600002E0182300200B6010BDC0462BC70400DD
:104270005FBF04000700FFFF4AC304000300FFFF05
:10428000F0B585B00090019117001D1E03D00029E4
:1042900008D1002A06D02C223349344834F006FCD9
:1042A00033485FE02B681A00324B9A420BD16B689F
:1042B000032B08D0002B06D034222B492E4834F093
:1042C000F5FB2E484EE02E000C36300001F004F9CC
:1042D000009B581E05280CD8FEF71AF90E0310058E
:1042E000070905240BE0072409E0082407E003245C
:1042F00005E0009B5A2209E0042400E00624200087
:1043000001F0DEF8011E07D12300602216491C4887
:1043100034F0CCFB1B4825E00122300001F006F907
:10432000002802D023006622F0E7002F02D03A00D6
:10433000019902E00422039703A9300001F01CF95F
:10434000002809D0300001F0CDF8752206490E484A
:1043500034F0ACFB0D4805E06B461B78054A2B7228
:1043600001230CC505B0F0BD1DC3040078C30400D3
:104370000700FFFF78563412A1C304000D00FFFFB1
:10438000C9C304000300FFFFF8C304000000FFFFDF
:1043900010B5141E03D185221A491B4811E00028CC
:1043A00008D1002906D089221649184834F07EFB2E
:1043B000174826E0174B22689A4206D08E221149F0
:1043C000154834F073FB15481BE063685A1E012A38
:1043D00006D994220B49124834F068FB114810E0CA
:1043E0000A00010020000C3001F020F9002806D05E
:1043F0009A2204490C4834F059FB0C4801E002238E
:10440000636010BD2BC3040024C4040048C404002E
:104410000700FFFF785634126DC404000400FFFF4C
:1044200093C404000D00FFFFBDC404000000FFFFA3
:1044300070B50D1E01D0002806D1A82219491A48CE
:1044400034F034FB19482BE0194B0A689A4206D025
:10445000AD221449174834F029FB174820E04B6877
:104460005A1E012A06D9B3220E49144834F01EFB05
:10447000134815E00E000C360100300001F0E8F89A
:10448000041E06D0B82207490E4834F00FFB0E4830
:1044900006E0032328606B60300001F023F8200061
:1044A00070BDC0463BC30400EBC404000700FFFF1F
:1044B0007856341215C504000400FFFF3AC5040005
:1044C0000D00FFFF63C504000000FFFFF0B5734C53
:1044D0000123A544802400218026FF2564008A0052
:1044E00006A81350FFA89A001C3011501A0058005B
:1044F000324000D01B224340534001312B40A142A7
:10450000EDD1002201238025FF20654C1351590075
:104510002B4000D01B234B4004320340282AF5D106
:1045200000210124FF265F4B3B321A705E4BFFAD2A
:104530009B1819701C350192A3005B5906AAF31A47
:104540009B00D758FB11790019433140CB114A0029
:104550001A4332405000D31103433340580084467D
:104560000093D81163461843019B30405F404F4091
:10457000009B7A40534058404A4BE0544A4B1C54ED
:10458000802301345B009C42D6D100241826AB6BFB
:10459000009402936B6A03936B6B0493EB6A05932D
:1045A000404B009AD05C7F2305009D436B1E9D41CC
:1045B0001B22FF236D4241002A404A401A4001025B
:1045C00003044B405340424012065340374AA35025
:1045D000F341374AA350F341364AA350F341364AD8
:1045E000A350314B009A9D5C002D1AD0FFAA1C32BB
:1045F000AB009B58FF210193019A029B981836F05B
:10460000A9FE039A8900944606ABCF58019BFF216F
:104610006344180036F09EFE06AB8900CB581B029F
:1046200001E02F002B005F4000239D420CD0FFAA29
:10463000AB001C329858049BFF21181836F08AFEF4
:1046400006AB8900CB581B045F4000239D420CD071
:10465000FFAB1C33AD00E858059BFF21181836F05E
:1046600079FE06AB8900CB581B065F40134BE75021
:10467000F741134BE750F741124BE750F741124B0C
:10468000E750009B0434013300938023009A5B00C1
:104690009A4285D10D4B9D44F0BDC046E4F7FFFF23
:1046A0006820400094204000942D40006810400095
:1046B0006814400068184000681C400094214000C5
:1046C0009425400094294000942E40001C080000CE
:1046D0008C2210B55200002133F0EDFB10BD0028F4
:1046E00008D0030000221933FF33984202D0027031
:1046F0000130FAE770470000F7B5724F04003B68DD
:104700000D001600002B03D1FFF7E0FE01233B60F4
:10471000C02E08D080235B009E4206D0F63B802E40
:1047200000D0C9E002E00C2300E00E232360230048
:1047300072090026083363600192019A964210D0F4
:10474000B700E8194178013609028C466246817843
:10475000C07809041143EA5D000611430143D951B1
:10476000EBE722680C2A30D00E2A60D00A2A00D04B
:10477000A5E00024FF26544D544FDA68E1599446D1
:10478000120A3240A85C1A6804344A406146090E95
:104790004240685C0004504062463240A95C624678
:1047A000120C324009064140A85C5A6800024140A0
:1047B0004A40196199685A614A4061469A614A4083
:1047C000DA611033282CD8D179E00024FF263E4D41
:1047D0003E4F5A69E1599446120A3240A85C1A6861
:1047E00004344A406146090E4240685C000450406F
:1047F00062463240A95C6246120C324009064140D2
:10480000A85C5A68000241404A4099619968DA619F
:104810004A40D9681A624A4019695A624A40614658
:104820009A624A40DA621833202CD2D147E000263F
:10483000FF202549DC69254F220A0240F7598D5C8B
:104840001A6804367A405540220E8A5C1F691204A9
:104850005540220002408A5C12066A40250C054041
:104860004D5D2D026A405D681A626A409D685A6219
:104870006A40DD689A626A401500DA6205404D5D63
:104880006F40150E4D5D2D067D40170A0740120C36
:10489000CF5D02408A5C3F0212047D4055405A6958
:1048A0001D6355409A695D6355406C409D63DC63B0
:1048B00020331C2EBED102E02020404200E0002028
:1048C000FEBDC0469020400094204000682040007B
:1048D000F0B50500C9B002A80C001600FFF7F8FEFD
:1048E0002B0008336B603200210002A8FFF704FFA1
:1048F0000190002847D1029A03992A601301013AD6
:104900000092FF22CB1819689446A9605968103BA1
:10491000E960996929612900D869183168611D4DDC
:10492000009A002A27DD002066461A581A4C1640C5
:10493000AE5D170EEF5DB6003659184CBF003F59FB
:1049400064467E40170A2740EF5D154CBF003F5973
:104950006446120C2240AA5C7E40124F9200D2594B
:1049600056400E5004301028DED1009A1031013A22
:104970000092103BD4E71A680A605A684A609A6845
:104980008A60DB68CB6002A8FFF7A9FE019849B0F6
:10499000F0BDC0469420400094214000942E400079
:1049A0009425400094294000F0B54B780F788C781E
:1049B0001B023B4324041D00230087B0CC780092E7
:1049C00042682B4324061C4313680F79634001930C
:1049D0004B798E791B023B4336041D003300CE79A0
:1049E0002B4336061E4353688C7A734002934B7AEE
:1049F0000E7A1B02334324041D002300CC7A2B4380
:104A000024061C4393680E7B5C404B7BE24F1B02E9
:104A100033431D008B7BC97B1B042B4309061943C1
:104A2000D368156959400368FF205B10013B05936B
:104A3000DA4B10329C46059EFF23002E00DCCBE0B3
:104A4000019BD74D03409B00EE58654613685E40BE
:104A50000B0E9B005B59D34D5E40029B1B0A03402B
:104A60009B00DB595E40230C03409B005B5965466D
:104A70005E40029B03960340C94E9B00F658536864
:104A80005E40019B1B0E9B005B59C64D5E40230A96
:104A900003409B00DB595E400B0C03409B005B59BD
:104AA000BF4D5E40230003409B00EB589568049681
:104AB0006B40029D240E2E0E6546B6007659019D70
:104AC00073400E0A0640B600F659014073402E0CA2
:104AD0000640B44DB6007659B14D89006958D56885
:104AE000A40069406546645973406140019CAC4D27
:104AF000260A0640B600F4596140029C260C064086
:104B0000A84CB6003459039E61400640B600AE5929
:104B100065460C0EA4006459A24D664014696640B7
:104B2000049C240A0440A400E45966401C0C044080
:104B3000A40064599A4D66400196049E039C064069
:104B4000B600AE596546240EA4006459954D6640E2
:104B5000546966401C0A0440A400E45966400C0CE9
:104B60000440A40064598E4D664002961E00064023
:104B7000B600AE596546049C1B0E240EA400645971
:104B8000956974400E0A0640B600F6596C40039DC4
:104B900074402E0C0640834DB60076590140804D7E
:104BA0008900695865469B005B5974405940D36938
:104BB000156A5940039B20321E0A0640B600F3597D
:104BC0005940049B1E0C0640764BB600F3585940E2
:104BD000059B013B05932EE77048019E8446704F6C
:104BE0001E40B600BE596746080E8000C0596A4F85
:104BF000464002986E40000A18408000C059694D36
:104C00004640200C184080004059654D46400396B0
:104C1000029E01981E40B600AE596546000E800007
:104C20004059604D464050684640200A1840800078
:104C3000C0594640080C184080004059584D464025
:104C4000049626001E40B600AE5965460298240E12
:104C5000000E80004059534D46409068A4004640E5
:104C6000080A18408000C059194046400198890040
:104C7000000C184080004059464049484158604661
:104C800020584140D06841400198040A1C400298D5
:104C9000A400E759040C1C40A4007940675903980C
:104CA0004F40414918400C5C1569380E65402C0096
:104CB000085C000644400498000A18400D5C20007F
:104CC000340C1C402D0268400D5D54692D04454094
:104CD00004981840085C44400398000E085C0006E5
:104CE0006040340A1C400C5D240260403C0C1C40B7
:104CF0000C5D2404444030001840085C0194946921
:104D0000D26944400498360E000E085C00066040EC
:104D10003C0A1C400C5D1F40CF5D240244400398B8
:104D200057408A5D000C18401206085C5740039AF1
:104D30000004160A1E408A5D604012025740049A21
:104D4000160C3340CA5C009B00991D702B0A4B70F7
:104D50002B0C2D0E8B70CD700B0069460979120457
:104D60001971019B00991B0A4B71019B7A401B0C26
:104D70008B71019B08721C0E030A4B72030C8B7221
:104D8000130A000E0A734B73130C120ECC71C87207
:104D90008B73CA7307B0F0BD68144000681C4000F4
:104DA000681040006818400094204000F0B54B782F
:104DB0000E788F781B0233433F041C003B0089B000
:104DC000CF780192426823433F061F4313688E79D0
:104DD0007B4002934B790F791B023B4336041C0046
:104DE0003300CE79234336061E4353684C7A734012
:104DF00003930E7A8B7A240234431B0423431C0052
:104E0000CB7A0D7B1B06234394685C404B7B049458
:104E10001B022B431C008B7BC97B1B04234309060D
:104E20001943D368146959400368FF205B10013BA4
:104E30000793D84B10329C46079DFF23002D00DCC2
:104E4000CEE06446029BD44E03409B00E5581368B5
:104E5000D14C5D40039B1B0E9B001B59CF4C5D400A
:104E60000B0A03409B001B59CD4C5D40049B1B0C5F
:104E700003409B001B595D4005956546039B03401D
:104E80009B00ED5853685D40049B1B0E9B009B5993
:104E9000C24E5D40029B1B0A03409B009B59BE4EC5
:104EA0005D400B0C03409B001B595D400695654619
:104EB000049B03409B00EB5895686B400D0EAD00C2
:104EC000AD59B64E6B40039D01402D0A0540AD0023
:104ED000AD5989006B40029D2D0C0540AD002D5948
:104EE0006B4065466958D5686940029D2F0EAA4DF2
:104EF000BF007D5967464D400499090A0140890069
:104F000089596940039D2E0C0640B6003559059E0F
:104F100069400640069DB600BF592D0E9E4EAD005D
:104F2000AD599E4E6F4015696F400D0A0540AD00AA
:104F3000AD59069E6F401D0C0540AD002D59064031
:104F40006F4002976746B600BE591D0E924FAD00E6
:104F5000ED59924F6E4055696E40059D2D0A0540F2
:104F6000AD00ED5967466E400D0C0540AD002D5962
:104F70006E4003961E000640B600BE590D0E864FC9
:104F8000AD00ED59854F6E40956901406E40069D1C
:104F900089002D0A0540AD00ED591B0A6E40059DA4
:104FA00003402D0C0540AD002D599B006E4004962A
:104FB0006646059D71582D0E774EAD00AD5969407E
:104FC000D56920326940DD59069B69401B0C0340BE
:104FD0009B001B5914685940079B013B07932BE723
:104FE0006746029E03986C4D1E40000EB60080007E
:104FF0004059BF59049E4740080A67401840674C13
:1050000080000059360C47401E406548B6003658AF
:10501000604677400597049E039F360E1F40BF00F1
:10502000B6007659C7595068774047400298060A3B
:105030001E40B60036595A4877400E0C1E40B60046
:105040003658604677400697049F0E0E1F40BF00FB
:10505000B600C759765990687E404640039819407B
:10506000070A1F40BF003F5902987E40070C1F40AF
:105070004B48BF003F5802987E40070E60468900AB
:10508000BF00079641587F59D06879404140049845
:10509000050A1D40AD002F5905984F40039918404F
:1050A0000D0C1D403E49AD00695815694F403D4902
:1050B0000C5C069865402C00000E085C000644401D
:1050C000380A18400D5C2000340C1C402D0268404A
:1050D0000D5D54692D04454006981840085C444015
:1050E000300E085C00066040059C240A1C400C5DE4
:1050F000240260403C0C1C400C5D24044440300001
:105100001840085C9669D2694640380E085C1F401A
:1051100000067040069ECF5D360A1E408E5D7A40C6
:10512000360246400598000C1840085C00047040A8
:10513000059E370E079ECF5D360A1E403F067A4019
:105140008F5D069E3F027A40370C3B40CF5C019B4F
:1051500001991D702B0A4B702B0C8B70230A4B711D
:10516000230C3F048B71030A7A404B72030C8B7241
:10517000130A2D0E0C710872240E000E0A734B7365
:10518000130C120ECD70CC71C8728B73CA7309B038
:10519000F0BDC04694214000942E4000942540006C
:1051A00094294000942D400010B50C0011001A0005
:1051B000012C02D1FFF7F8FB01E0FFF7F7FD00201B
:1051C00010BDF0B589B0029003911600019313074A
:1051D00044D117001500002937D10F9B741B1C19EF
:1051E000002D1CD010220E9904A832F042FE0E9A17
:1051F000230000210298FFF7D7FF0022019BA15C4A
:105200009B5C4B40A3540132102AF7D104A90198AA
:1052100032F02FFE0E9B103D10330E93DDE7002081
:105220001EE0019B515D5B5D4B4063550135102DC8
:10523000F7D12300220003990298FFF7B5FF2A0057
:105240002100019832F015FE103F0E9BF41B1A1935
:105250000F9B1C19002FE2D00025E2E722204042DC
:1052600009B0F0BDF7B51E001C680A9B00909B18A2
:105270000193099F0A9D002929D1019BAB4229D0A6
:10528000002C04D1089A00981100FFF78DFB089BB1
:1052900039781A19137801344B402B700F23117091
:1052A0001C4001370135E8E7002C04D1089A00982A
:1052B0001100FFF779FB089B1A1911783B7801342C
:1052C0004B402B7013700F2301371C400135019B9D
:1052D000AB42E9D134600020FEBDF0B58BB0109C2C
:1052E0001D00119FA318039001910293029B9C4201
:1052F00020D005AE10222900300032F0BAFD2A007D
:1053000029000398FFF750FB019B002B01D1237864
:1053100033742A7823785340019A3B70012A00D1D4
:10532000337404AB1022591D280032F0A2FD013461
:105330000137DBE700200BB0F0BDF0B5170085B0FA
:105340001E000C9D0B9B146801936B180390029335
:10535000029B9D4221D0002C0DD00A9B1A5D019B1F
:1053600001341B7853402B700F231C40019B0135E7
:1053700001330193ECE70A9A31000398FFF714FB1D
:105380003200711E0F32137801331B061B0E13708F
:10539000E3D1013A9142F6D1DFE700203C6005B04D
:1053A000F0BD10B513000A0001000620FEF7D4FE80
:1053B00010BD10B513000A0001000120FEF7CCFE5D
:1053C00010BD10B513000A0001000220FEF7C4FE54
:1053D00010BD10B513000A0001000320FEF7BCFE4B
:1053E00010BD10B532F016FD10BD07B5032001A9A0
:1053F000FEF752FD03000020834203D101990130E2
:1054000032F05AF80EBD07B5022001A9FEF744FD9F
:1054100003000020834203D10199013032F04CF89F
:105420000EBD07B5012001A9FEF736FD03000020DF
:10543000834203D10199013032F03EF80EBD07B529
:10544000062001A9FEF728FD03000020834203D1B6
:105450000199013032F030F80EBD0B0010B501009B
:105460001800FEF709FE10BD0B0010B51100020078
:105470001800FEF799FD10BD10B501000320FEF7DE
:105480002FFD10BD10B501000220FEF729FD10BD53
:1054900010B501000120FEF723FD10BD10B501007D
:1054A0000620FEF71DFD10BD10B532F0B3FC10BD97
:1054B00010B532F0AFFC10BD10B532F0ABFC10BD32
:1054C000C31E1B061B0E0020032B02D8014A9B00A3
:1054D000985870471CC8040010B50C22002132F007
:1054E000EAFC10BD10B5041E1FD00368002B1CD0B1
:1054F0004068002801D05B6A9847A368002B0CD055
:1055000000212268D26852009A189A4202D019707B
:105510000133FAE7A06832F07DFC230000220C334F
:105520009C4202D022700134FAE710BDF8B50400A5
:105530000D001600002917D0002815D00B6A9847D7
:10554000071E606012D0002E0BD0E968022031F0F7
:10555000B3FF061EA06004D16B6A380098476660EE
:1055600004E02560002002E0014800E00148F8BDA9
:1055700000AFFFFF80AEFFFFF0B504008BB00D0061
:10558000170000284CD00368002B49D08268002AFD
:1055900046D0DA68BA4210D21B694068984723683F
:1055A0003A0029005B6960689847236802A99B69F3
:1055B00060689847236802AD9F682368A668DA6828
:1055C0003621B3183000019332F075FC23685C215A
:1055D000DA68019832F06FFC00239F420BD0F15C37
:1055E000EA5C4A40F254019AD15CEA5C4A40019973
:1055F000CA540133F1E70023190002A81A18013335
:10560000212B01D01170F8E7236860681B69984767
:10561000236860685D69DA683100A847002000E00F
:1056200001480BB0F0BDC04600AFFFFF10B5002829
:105630000AD00368002B07D08468002C04D040688F
:105640005B699847002000E0004810BD00AFFFFFF5
:10565000F0B5040089B00E00002822D00368002BAA
:105660001FD08568002D1CD0DA6869469B694068A8
:10567000AD189847236860681B699847236829001C
:10568000DA685F696068B847236869469A685D6947
:105690006068A847236860689B69310098470020CC
:1056A00000E0014809B0F0BD00AFFFFF10B558227F
:1056B000002132F000FC10BD002807D003000022BA
:1056C0005833984202D002700130FAE77047000068
:1056D000002303604360044B8360044BC360044BAE
:1056E0000361044B436170470123456789ABCDEFEC
:1056F000FEDCBA9876543210F0B50C000B7849787D
:1057000093B00902194300900800A178E2780904D7
:10571000014312060A43029262792079120202437F
:105720001100A279E37912040A431B061343039381
:10573000637A207A1B0203431A00A37AE17A1B04DE
:10574000134309061943637B0491217B1B020B431E
:105750001A00A37BE07B1B04134300061843627C02
:105760000590207C120202431100A27CE37C12040B
:105770000A431B061343627D0693237D12021A43DC
:105780001100A27DE37D12040A431B061343079315
:10579000207E637E1B0203431A00A37EE07E1B046F
:1057A00013430006627F1843237F12021A4311003D
:1057B000A27FE37F12040A431B0613430993631C71
:1057C000DA7FA31CDB7F08901B0213431900E31C44
:1057D000DB7F221DD27F1B040B4312061A43631D7D
:1057E000DF7FA31DDB7F0A921B023B431A00E31DF0
:1057F000DB7F1B04134322000832D77F3F061F4381
:1058000023002833197801331B780B971B020B43B5
:105810001A0023002A331B781B04134322002B3267
:1058200011780906194323002C331A7801331B78A9
:105830000C911B0213431900230022002E331B7806
:105840002F3212781B040B4312061A432300303305
:105850000D921A7801331B781B02134319002300A1
:10586000220032331B78333212781B040B431206AA
:105870001A43230034330E925A78187812020243E6
:1058800011009A78D87812040A43000610432200C7
:105890003932127804331B7812021A4323000F9016
:1058A00010003A331A7801331B78120402431B06A6
:1058B00013432200109323003D3212783C331B78AF
:1058C00012021A4323003E331B783F341B04134358
:1058D0002278FE4912061A43009B1192DB68009A57
:1058E0000193009B52691B695340019A1340009A2F
:1058F00052695340009A926852189B18029AF449D0
:10590000D3181922D341019AD318009A019C5269E5
:10591000069D50180099039AAC46821808690199AF
:10592000079D484000991840096948408018142292
:10593000D0410A00E74918185618049A0199B2187C
:10594000019E5E4006404E400F21B618E24ACE410D
:10595000A218059C861917191A00424032405A4075
:10596000D2190A27DD4CFA416444A4460400B21857
:105970007440144044406344A44619246344AC4634
:10598000E341D74CD3186444A446340054401C402F
:1059900074406044A446089D14246044AC46E04131
:1059A000D04C18186444A44614005C400440544091
:1059B0006644A4466644CE418419A446CA4D099C57
:1059C0006619B2181E00644646402640C74D0A9C20
:1059D0005E40B2186619F318FA41664662444640C2
:1059E00016404640F6181923C14CDE410B9B961910
:1059F0001B19181863466446534033406340181817
:105A00001423BC4CD8410C9B30181B191400744053
:105A1000044054406344A4460D9D6344AC46B64CD8
:105A2000CB416444A4463400C31844401C40744035
:105A30006244A4460E9D6244AC46B04CFA416444B4
:105A4000A44604009A185C40144044406644A446AE
:105A50000F9D19246644AC46E641A94C961964444E
:105A6000A4461C00544034405C406044A446109D51
:105A700014246044AC46E041A24C30186444A4466F
:105A800014007440044054406344A4466344CB4132
:105A90009D4CC118119B1B199A18330043400B40B1
:105AA00073409A18FA41994C8B18039A02371219CD
:105AB00096190A005A4002404A4096191B22944CFB
:105AC000D641089A9E19121910181A0072400A40FD
:105AD0005A40101817228F4CD0410D9A30181219C5
:105AE0005118320042401A407240511812228A4C1A
:105AF0009446D141029A41181219D31802004A4023
:105B000032404240D318854C079AFB41121996192E
:105B10000A00CB185A4002404A4096191B22804C7A
:105B2000D6410C9A9E19121910181A0072400A4098
:105B30005A40101817227B4CD041119A3018121974
:105B40005118320042401A40724051186246764C59
:105B5000D141069A41181219D31802004A40324026
:105B60004240D318714C0B9AFB41121996190A0046
:105B7000CB185A4002404A4096191B226C4CD64121
:105B80002A1910181A009E1972400A405A4010181B
:105B90001722684CD041059A30181219511832005A
:105BA00042401A40724051186246634CD1410A9AF1
:105BB00041181219D31802004A4032404240D2180C
:105BC0005E4C0F9BFA411B199E190B008A1853401B
:105BD00003404B409E191B23594CDE41049B9619F0
:105BE0001B191818130073400B4053401818172343
:105BF000544CD841099B30181B19591833004340A5
:105C000013407340591863460E9DD941AC460300BA
:105C10004D4C41184B406444A4461C003440444061
:105C20006244A4466244FA41079C484D8A186719A9
:105C30001C24BE1953409B19E341454D0A9CD318BF
:105C4000661930180E00152456405E403018E041A9
:105C5000404D0D9C10276619711816001818109CDD
:105C60005E403D4D464071186619F941B2181E005C
:105C7000039D411846404E40AC46B2180926374CA9
:105C8000F2416444A44604008A184C4054406344E2
:105C9000A446069D1C246344AC46E341304CD31813
:105CA0006444A4460C0054405C406044A446099DF2
:105CB00015246044AC46E0412A4C18186444A446BC
:105CC00014005C4044406144A4464DE078A46AD787
:105CD00056B7C7E8DB702024EECEBDC1AF0F7CF510
:105CE0002AC68747134630A8019546FDD898806993
:105CF000AFF7448BB15BFFFFBED75C892211906B7D
:105D0000937198FD8E4379A62108B44962251EF649
:105D100040B340C0515A5E26AAC7B6E95D102FD6DF
:105D20005314440281E6A1D8C8FBD3E7E6CDE121B4
:105D3000D60737C3870DD5F4ED145A4505E9E3A915
:105D4000F8A3EFFCD9026F678A4C2A8D4239FAFF1B
:105D500081F6718722619D6D0C38E5FD44EABEA491
:105D6000A9CFDE4B604BBBF60C9D6144AC46A64C04
:105D7000F9416444A4461C00411844404C4062442C
:105D8000A4460F9D6244AC46A04CF2416444A44634
:105D900004008A184C4054406344A446029D1C24CD
:105DA0006344AC46E3419A4CD3186444A4460C00C7
:105DB00054405C406044A446059D15246044AC46B4
:105DC000E041944C18186444A44614005C404440DC
:105DD0006144A446089D6144AC468F4CF94164443B
:105DE000A4461C00411844404C406244A4460B9D0C
:105DF0006244AC46894CF2416444A44604008A18CB
:105E00004C4054406344A4461C246344E341D318EB
:105E10001D00834C0E9B1B191B1808005040684046
:105E2000C01815237F4CD841119B40191B195918D4
:105E30002B005340434059187B4C049BF9411B19DC
:105E40009A182B00411843404B409A18F241774C66
:105E50008E18A446C243029B324363445B194A40F6
:105E6000D2181A23724CDA41A446099BCF436344EB
:105E70001818704C1623A446B218174377403818E8
:105E8000D841109B6C4C63445918F3431127A44626
:105E90001018034353405918079BF94163449E1956
:105EA000D34341180B43654D4340AC469B190B2629
:105EB0000E9CF3416444A446C443CB181C434C409D
:105EC0006244A4465E4D1A246244AC46E241059CFD
:105ED0009A186444A446CC4314435C406044A446EE
:105EE000584D16246044AC46E0410C9C10186444A4
:105EF000A446DC43044354406144A446524D6144EB
:105F0000AC46039CF9416444A446D44341180C4375
:105F100044406344A4464D4D6344AC460A9CF3415F
:105F20006444A446C443CB181C434C406244A4467A
:105F30001A246244E241464C9A18A4461500119A6C
:105F4000444C62441018CA432A435A40121816207F
:105F5000A446C2410898404C60444118D843A44626
:105F600052191043684041180F98F9416044C31812
:105F7000E843511808435040C018384CF041A4463B
:105F8000D4430818069B04434C406344A4465B1961
:105F90001A24334D6344AC46E3410D9CC31864445A
:105FA000A446CC431C4344406244A4462D4D1624D1
:105FB0006244AC46E241049C9A186444A446C4433B
:105FC00014435C406144A446274D6144AC460B9C9D
:105FD000F94164442018009C5118A468E718009CFB
:105FE000A760DF430F4357403818F041019B5B180F
:105FF000C0182369E0605918636921619C18009BEF
:106000005C6113B0F0BDC04670BCBFBEC67E9B28AD
:10601000FA27A1EA8530EFD4051D880439D0D4D9F8
:10602000E599DBE6F87CA21F6556ACC4442229F44E
:1060300097FF2A43A72394AB39A093FCC3595B6510
:1060400092CC0C8F7DF4EFFFD15D84854F7EA86FDD
:10605000E0E62CFE144301A3A111084E827E53F703
:1060600035F23ABDBBD2D72A91D386EBF7B5036898
:1060700005003F2018409B180E0014002B609A4228
:1060800002D96B6801336B60002811D040273F1A9A
:10609000A7421CD82B001833310018183A0001937E
:1060A00031F0E7FE01992800FFF726FBF619E41B03
:1060B0002700E11B71183F2F04D92800FFF71CFBB4
:1060C000403FF6E70020A3099B01F618E41A002CD4
:1060D00005D0183528182200310031F0CAFEF7BD6E
:1060E00010B5002A01D0FFF7C1FF10BD73B5040041
:1060F00000686368420FDB0013436A466E460D007A
:10610000C10011700A0A72700A0CB2701A0A727118
:106110001A0CB2713F22090E33711B0EF371F1702C
:1061200002403823372A00D978239A1A20001A49C6
:10613000FFF7D6FF082269462000FFF797FF237A72
:106140002B70A3681B0A6B70A3681B0CAB70A36851
:106150001B0EEB70237B2B71E3681B0A6B71E368EA
:106160001B0CAB71E3681B0EEB71237C2B72236954
:106170001B0A6B7223691B0CAB7223691B0EEB723B
:10618000237D2B7363691B0A6B7363691B0CAB73F1
:1061900063691B0EEB7373BD2CC8040010B55C2241
:1061A000002131F088FE10BD002807D00300002236
:1061B0005C33984202D002700130FAE77047000069
:1061C000002303604360054B8360054BC360054BB0
:1061D0000361054B4361054B8361704701234567AC
:1061E00089ABCDEFFEDCBA9876543210F0E1D2C321
:1061F0000A00F0B5537809781B0409061943D378CF
:1062000097B01943937806001B0219431379149130
:1062100019065379107A1B040B43D17900060B43FE
:106220009179177B09020B431593537A3F061B04A0
:106230001843D37A1B251843937A02241B02184370
:10624000537B07901B041F43D37BD07C1F43937B5E
:106250001B021F43137C09971906537C1B040B4335
:10626000917C034309020B430A93137D1906537D66
:106270001B040B43D17D0B43917D09020B430B9310
:10628000137E1906537E1B040B43D17E0B43917E74
:1062900009020B43117F11930806517F0B04010083
:1062A0001943D37F1943937F1B021943531CD87F93
:1062B000931C12910106D87F030419430800131D93
:1062C000DB7F1843D31CDB7F1B021843531D0C904C
:1062D000D87F931D0106D87F0304194313000800DB
:1062E0000833DB7F1843D31DDB7F1B0218431300E9
:1062F00028331B780D901906130029331B781B04D3
:106300000B4311002B3109780B4311002A31097816
:1063100009020B430E9313002C331B78190613004C
:106320002D331B781B040B4311002F3109780B43CD
:1063300011002E31097809020B430F9313003033FB
:106340001B781906130031331B781B040B43110013
:10635000333109780B43110032310978B7680902EB
:106360000B431093130034331978EF410806597822
:106370000B0401001943130037331B781943130032
:1063800036331B781B0219431300383318780191F8
:106390000106587803041943130008003B331B78A7
:1063A000184313003A331B781B02184313003C3385
:1063B0001B780290190613003D331B78F0681B040C
:1063C0000B431100E0413F3109783E321943137805
:1063D000FE4A1B0219430391736931695940F368FE
:1063E000194073695940B3699B18FF18149BCF1962
:1063F000DA193369B16843400B403169F34F4B40C0
:106400007169C9195B18159907005B181100E941FA
:10641000CB18B168E1414F4017404740BC4604915A
:10642000EA4F3169E241CF1907997F181900E94114
:1064300067448C463900170061448C46049A0499DD
:106440007A401A404A40E149E3414018099940180E
:1064500010186246EA411218380005926246584008
:1064600004991040D94A784089180A9A8918411825
:106470000598E841421861461800E1410492059AE6
:1064800048401040584006900B98D04A84466244D9
:10649000D719069AD019049FEF413A1805980F00B2
:1064A000E0410692049A474017404F400597119FDC
:1064B000C64ABC4662449446059A6344D718069B74
:1064C000069AEB41DB190593049B0700E3415F400B
:1064D00004931740BD4B129A4740D21851187F18A9
:1064E0000599BA4AE941CB19069F0499E7410893F7
:1064F000059B79401940049B59400C9B9C46624483
:106500009446604409180898B04AE8414318059930
:106510003800E1410693089B484018400D9B7840A5
:106520009C4662449446049B089A6344C018069BA8
:10653000E241EB411B1805930B0004925340069A6D
:10654000A24813400E9A4B401218D719DB19059F29
:10655000059AEF41FB18069F0893E741049B7B4097
:106560001340049A534002000F98844662449446B4
:1065700061445B1808991098E941CB180693059B74
:106580003900E3418446089A594011408F4A0698E1
:1065900062449446E841049A79406244891842185A
:1065A0009446089A1800E24111005040069A1040A3
:1065B00058400490019A85481218D719049AD019A6
:1065C0006746EF413A180698E0410700059060469B
:1065D0004F4007404F40049702987C4FC019C318A2
:1065E0000498C7181000E841C3196046E0410690BE
:1065F000069F05987840059F104078408446039F89
:106600007248E2413F187F1838001F00EF41604494
:106610003918139194461499079A069851400C9A88
:10662000139F5140019AEF4151401F22D1416246D0
:106630005040069A184050400A00E34104916349D3
:1066400008935118059A159B8918099A40185340C8
:106650000D9A5E495340029A3F1853401F22D3417E
:1066600005936346089A5340139A13406246534079
:10667000059A5018069A139980181B183800E8419B
:10668000C31807980A9AE14150400E9A5040039A65
:1066900050401F22D04106900898089A4840384040
:1066A000424007924948069AE7411018079A604409
:1066B00010181A00EA41944602006244139214979B
:1066C0000B9A099F57400F9A5740049A57401F2230
:1066D000D741079707983D4A844662449446089AF2
:1066E000149F9444139A4F40EA411F40E3414F40A6
:1066F000159367440A9B9446119A67445340109A35
:106700005340059A53401F22D34108930898159A85
:106710008446149B13985340139AE04153402C4AEB
:106720006244944661445B183900E941C9180B9BE7
:10673000129A84465340019A15985340069A534042
:106740001F22D34109936346214A5840099B784050
:106750009B18149AE7419B18C0180B00EB410C9A48
:106760001818119B13975340029A67465340079A93
:1067700053401F22D3410A93139B154A5F404F4059
:10678000E1410A9B11919B18159A12999B180D9A39
:10679000FF185140039A03005140089AEB415140C1
:1067A0001F22D141119A0B911399DB19514041409D
:1067B000E0410B9A064FD71967440E9A84460C980D
:1067C000C9195040049A1F0004E0C0469979825AC2
:1067D000A1EBD96E5040099AEF4150401F22D041A1
:1067E00062460C90119879185040FE4F0C9A584010
:1067F000D719139AE341BF18C0190F00EF41129344
:106800003F180F9B0D98F74A5840059B58400A9B2C
:1068100058401F23D8410D906046129B58400D9B55
:1068200048409B18119AE1419B18C0183B00EB416E
:10683000109A18180E9B11915340069A53400B9AC8
:1068400053401F22D3410E93129B0E9A4B40E549B1
:106850007B40511861445B180100E941019AC91855
:106860000F9BE7415340079ABC4653400C9A119F37
:1068700053401F22D3410F936346DA4A5F400F9B78
:1068800047409B18129AE0419B18FF180B00EB4100
:10689000029ADF19109B12905340089A53400D9AA8
:1068A00053401F22D3411093634643404B40E14184
:1068B000109ACC481018119A119180180199039AD6
:1068C0001B185140099A380051400E9AE841514036
:1068D0001F22D141119A01911299C3185140C14808
:1068E000019A79401018604409181800E841E741FE
:1068F0004118049A0298BC4650400A9A119F504091
:106900000F9A50401F22D0416246574002005F401C
:10691000E3410290B3481018129A129380183F185E
:106920000800039B059AE84153400B9AC019534055
:10693000109A674653401F22D3410393129BA94AE2
:106940005F404F40E141039B9B18119A11919B18A6
:106950000499069AFF1851400C9A03005140019A7D
:10696000EB4151401F22D1410491119A1299DB1938
:1069700051409C4F049A4140D7196744C9191F00E0
:10698000EF41079A7F180599E04151400D9A8446DE
:106990005140029A51401F22D14105911199059A07
:1069A00041405940E3418F481018129A12938018C1
:1069B000069B089A091853400E9A38005340039AD0
:1069C000E84153401F22D34106936346129A401870
:1069D00053408449069A7B405118119AE74189181F
:1069E0005B180100E941099AC918079B11975340A8
:1069F0000F9A5340049A53401F22D3410793129B8E
:106A0000079A7B40774F4340D7196744DB190F0043
:106A1000E041EF411390FF1808980A9B714A5840D3
:106A2000109B5840059B58401F23D841139B08904A
:106A3000119858404840E141089B9B18129A1291C6
:106A40009B1809990B9AC0185140019A3B0051407C
:106A5000069AEB4151401F22D141129A0991139994
:106A60001B1851405F48099A79401018119AE74164
:106A7000801809181800E8410C9A40180A995140EA
:106A8000029A5140079A51401F22D1410A9112990E
:106A9000544A7940594011910A99E3418C4613991F
:106AA00062448C469444119A13936244110002008C
:106AB000EA410B9B94460D9A61445340039A53401C
:106AC000089A53401F22D3410B93139B454A7B40A6
:106AD000434011930B9BE0419C46624494460A005C
:106AE000EA41129B9C44119B119063440C9894467C
:106AF0000E9A63445040049A5040099A50401F2215
:106B0000D04102000C9038481018C7191800E8410D
:106B10003F181198139A08430240119808401043F7
:106B2000C7190F9A0D98E1415040059A8C46504084
:106B30000A9A50401F22D0410D9008001940184376
:106B4000E341119A1293104008430D9A26490E9B77
:106B50005118139A8918109A40185340069A390010
:106B600053400B9AE94153401F22D3411E4A081853
:106B70000E939918119B6246C9180300EB41C9187E
:106B8000129B3B431A40129B3B40E7411343591869
:106B900011970F9B019A5340079A53400C9A534008
:106BA0001F22D3410F933B00129A03430740134027
:106BB0003B430F9A0C4FE041D7196744DB190F0094
:106BC000EF41029AFF18109B84465340089A380000
:106BD00053400D9AE84153401F22D341024A10937B
:106BE0009B1803E0A1EBD96EDCBC1B8F129A9B189B
:106BF0001B186046119A0843024060460840E14174
:106C000010431291039A0199C3185140099A12989E
:106C100051400E9A384351401F22D14162460191A2
:106C2000129910403940019A0843FE49E741511832
:106C3000119A1197891840181900E941049A091806
:106C400002980F0050400A9AEF4150400F9A50406E
:106C50001F22D04102000290F24810186044C0196F
:106C6000119F129A1F433A40119F1F40E34117435F
:106C70009C46059A039B381853400B9A674653402D
:106C8000109A0F4353401F22D3410393119BE54AAF
:106C90001F4063460B40E1411F43039B9B18129A20
:106CA00012919B180499069AFF1851400C9A030000
:106CB0005140019AEB4151401F22D1410A000491F9
:106CC000D849DB1957181900E941119ABF186246D3
:106CD0007F18129901430A40129901401143CF19BC
:106CE000079A0599E04151400D9A11905140029A3E
:106CF00051401F22D1410591010018401943E34141
:106D0000129A11400143059AC64810186044089A27
:106D10009C46069B091853400E9A38005340039A2C
:106D2000E84153401F22D341BE4A401806939918A8
:106D3000129B119AC9180300EB41C91863463B43E3
:106D40001A4063463B4013435B18099A0799E74191
:106D500051400F9A12975140049A074351401F2205
:106D6000D14162460791129917400140E041079ACC
:106D70000F43AC495118119A1190891808980A9A32
:106D80007F185040109A19005040059AE941504030
:106D90001F22D04102000890A248C9191718080004
:106DA000E84167443F181198129A1843024011981D
:106DB0001840E34110431393C2190B9B099F94465B
:106DC0005F40019B119A5F40069B13985F401F2311
:106DD000DF41139B08400B43134003439148129A31
:106DE00009973F18BF18DF196346E141EB41129143
:106DF000DF190A990C9B5940029B129A5940079B34
:106E000059401F23D941119B0818C0183B00EB4182
:106E1000C31860460A9161461043139A1040129AB3
:106E200011400843C0186346E3410D9A11930B9B30
:106E300011995340039A39405340089A53401F22F6
:106E4000D3410B93119B129A3B4313401943754A4C
:106E50000B9BE7419B18139ABC469B18CB1801006B
:106E6000E9410E9AC9180C9B0F005340049AEF4158
:106E70005340099A53401F22D3416A4A0C939B18EE
:106E8000129A9B18DB196746119A07433A406746E6
:106E90000740E041174312900F9A0D98FB1850409D
:106EA000059A50400A9A50401F22D04162460D90E8
:106EB0001298129F08430F40E141104038430D9A49
:106EC000584FD719119A1191BF18C0191F00109A65
:106ED0000E99EF415140069A3F1851400B9A3800E5
:106EE00051401F22D1410A00E8410E914D495118ED
:106EF000614408181199129A19430A4011991940CE
:106F000011430918019A0F98E3415040079A5040E5
:106F10000C9A50401F22D0410F903800119A18430C
:106F200010401A003A40024394463E480F9AE74107
:106F30001018129A139780180A00EA416044944688
:106F4000020062441292109F029A5740089A5740DA
:106F50000D9A57401F22D74110971098324A844605
:106F600062449446119A139F9444129A5F40EA41F6
:106F70004F40E1416744119194460199039A674457
:106F80005140099A51400E9A51401F22D14101911E
:106F90000198119A8446139912985140129AE0412F
:106FA0005140214A624494466344C9183B00EB4176
:106FB000844659180298049B624658400A9B5840E0
:106FC0000F9B58401F23D841119B02905340020051
:106FD0007B40E741144812971018139A039F8018BA
:106FE0001B180800059AE84157400B9AC3185740F0
:106FF000109A604657401F22D741129A039750407B
:107000003A00094F4840D719119AE141BF18C019F9
:107010001F00EF41069A3818049F119157400C9AAF
:10702000129903E0DCBC1B8FD6C162CA5740019A9B
:1070300057401F22D7410497119A51403A00C54F3B
:107040005940D7196744C9190700E341EF419C46ED
:107050007918079B059F62465F400D9B5F40029B2E
:107060005F401F23DF41119B059753403A00B94F02
:107070004340D719129AE041BF18DB190F00EF41C6
:10708000089AFF18069B129053400E9A6046534090
:10709000039A53401F22D3410693129BAD4A584096
:1070A000069B48409B18119AE1419B18C0183B0071
:1070B000EB41119118180799099BA64A59400F9B5B
:1070C0005940049B59401F23D941119B07911299A4
:1070D00059407940E741079B9B1863440A9ABC4694
:1070E000089FC9185740109A03005740059AEB4172
:1070F00057401F22D74162465B18119908975140AB
:107100003A00944F4140D719129AE041BF18C9196B
:107110001F00EF410B9A7918099F12905740019A6E
:1071200060465740069A57401F22D741129A099746
:1071300050403A00874F5840D719119AE341BF1881
:10714000C0190F00EF41119338180C9B0A9F119A38
:107150005F40029B5F40079B5F401F23DF41129B04
:107160000A9753403A007B4F4B40D7196744DB19CD
:107170000700EF410D9AFB180B9FE1415740039A1E
:107180008C465740089A57401F22D7410B97119FB2
:107190000B9A4F406F4947405118129AE0418918A5
:1071A0007F181900E9410E9ACF190C99129051409D
:1071B000049A60465140099A51401F22D141129AC7
:1071C000139150400A00634958405118119AE34105
:1071D000891840183900E9410C9309180F9B0D9844
:1071E0000C9A5840059B58400A9B58401F23D84191
:1071F000129B11905340020056487B401018604487
:107200001B180800E741E8410D97C0180E9F109B1E
:107210000D9A5F40069B5F400B9B5F401F23DF4141
:107220000C9B0E9753403A004A4F4B40D719129A85
:10723000E141BF18DB190700EF41019AFF180F9BCE
:107240005340079A5340139A53401F22D3410F9340
:107250000D9B404A4B40434006930F9BE0419C46A8
:10726000624494463A00EA410C9B9C44069B06907B
:10727000634410989446029A63445040089A5040E0
:10728000119A50401F22D04108900698089A484011
:10729000784084462F48E74110180D9A07978018C8
:1072A0001A00EA41019F60449446039A60445740A3
:1072B000099A57400E9A57401F22D741254ABF18B6
:1072C0007918079A069F57405F40C9190700EF4198
:1072D000029A7918049FE34157400A9A57400F9A3F
:1072E00057401F22D7411B4ABF18069ABF18079A5A
:1072F0005A40424094460A00EA4167449446039A41
:10730000BC44059FE04157400B9A5740089A5740AC
:107310001F22D741B26801970E4FD219019FBF18A3
:10732000079ABF181A0042404A40BF186246EA4115
:10733000E141BF18F268B7606244F26032698918AF
:107340007269316110187061B269D318B36117B0F6
:10735000F0BDC046D6C162CAF7B5036805003F203C
:1073600018409B180E0014002B609A4202D96B68DB
:1073700001336B60002811D040273F1AA7421CD868
:107380002B001C33310018183A00019330F071FDC6
:1073900001992800FEF72CFFF619E41B2700E11BDA
:1073A00071183F2F04D92800FEF722FF403FF6E76F
:1073B0000020A3099B01F618E41A002C05D01C3507
:1073C00028182200310030F054FDF7BD10B5002A16
:1073D00001D0FFF7C1FF10BD73B504006E46006811
:1073E00063680D00DA00430F13431A0E32701A0C53
:1073F00072701A0AB2703F22C100F3700B0E337123
:107400000B0C73710B0AB371F17102403823372AE8
:1074100000D978239A1A20001F49FFF7D7FF0822C6
:1074200069462000FFF798FFA3681B0E2B70A36826
:107430001B0C6B70A3681B0AAB70237AEB70E368BC
:107440001B0E2B71E3681B0C6B71E3681B0AAB719D
:10745000237BEB7123691B0E2B7223691B0C6B7250
:1074600023691B0AAB72237CEB7263691B0E2B73BF
:1074700063691B0C6B7363691B0AAB73237DEB732E
:10748000A3691B0E2B74A3691B0C6B74A3691B0AE5
:10749000AB74A369EB7473BD6CC8040010B56C22A7
:1074A000002130F008FD10BD002807D003000022A5
:1074B0006C33984202D002700130FAE77047000046
:1074C00000230360436099420FD1114B8360114B3D
:1074D000C360114B0361114B4361114B8361114B2D
:1074E000C361114B0362114B0EE0114B8360114BD2
:1074F000C360114B0361114B4361114B8361114B0D
:10750000C361114B0362114B436281667047C046F1
:1075100067E6096A85AE67BB72F36E3C3AF54FA524
:107520007F520E518C68059BABD9831F19CDE05B50
:10753000D89E05C107D57C3617DD703039590EF756
:10754000310BC0FF11155868A78FF964A44FFABE1C
:107550000023F0B5D5B00B900B9AD2189268019227
:1075600001980CAA98500433202BF5D100200B78F9
:107570001A064B781B041343CA7813438A780431E4
:107580001202134314AA835004304028EFD1139BF6
:107590000E9F0793109B15AE0693119B0593129BAC
:1075A00004930C9B03930D9B02930F9B0193CB4B76
:1075B0001D1D4433089306230B22069C0D20DC413D
:1075C000069B0399D3416340069C0E32D441059A31
:1075D0005C40049B5340069A1340049A5A40A318F7
:1075E0002A1F1268039C9B18321F12689B18079A67
:1075F0009B18019A94460222D141039A9C44C241AD
:1076000051401622D441039A6140029C03981443CE
:10761000029A3C40024014430C19E41832682B686B
:1076200005999818049B059AC018069B5A40634612
:107630001A4051404218062360460B21D841634648
:10764000CB41614658401923D94148401318DA19F3
:107650000492210002220D20D1412200C2412000CB
:1076600051401622D04141400398029A20431040D5
:10767000039A0B27224010430818C01872686B68E1
:1076800099186246059BC918069B5340049A1340FB
:10769000069A5340CA1806230499D941049BFB411A
:1076A00059401923049FDF4179405318029A07007B
:1076B0009A18059202220D21D7410200CA41010009
:1076C00057401622D1414F402100039A01431140F7
:1076D0000200224011437918CB180293B268AB68BC
:1076E00004999B18069A9B1862464A4005990A40DD
:1076F00061464A409F1806230B21059ADA41059BF3
:10770000CB415340059A0E31CA415A40039BBA18E7
:10771000D31803930223029F0C39DF41029BCB4114
:107720007B40029F0931CF417B40070002990F4304
:1077300027403900029F07400F43DB199B18F1686F
:10774000EA68049F5218059962444F4003990F401C
:1077500004994F400621D219039FCF41BC46039F95
:107760000531CF41614679408C461921039FCF41B5
:1077700061464F40D219A11807911F0002211C0039
:10778000CF410B31CC4167401C000931CC416740EF
:10779000029C02991C430440A4461C000C40614614
:1077A0000C433C19A218019231692A69079F5218AB
:1077B000049954180399059A4A4007990A40059973
:1077C0004A400621A218079CCF410531CC416740B1
:1077D000079C0E31CC417C40121981180491022182
:1077E000019C0198CC410B31C841444001980931BA
:1077F000C841019F4440029901981F430F4018401F
:1078000038432018871871696A69049C52180599D1
:1078100050180799039A4A4004990A4003994A402C
:10782000062182180498CC410531C841444004988F
:107830000E31C8410299604012188918059138002C
:1078400002210D24C8413900E14148403900093482
:10785000E141019C484001993C431C40394021438F
:1078600041188A180292B169AA69049852180399BA
:107870000B245118079A20354240059820360240C3
:10788000079842408A1806210598C8410599E141A8
:10789000484005990E34E141414052189B18069327
:1078A00002230D200299D941029BC3415940029BFA
:1078B0000930C34102985940019B38431840029B4C
:1078C0003B400343CB189B180393089BAB4200D06B
:1078D00071E61023014E14AD0A9301E0ECC80400D8
:1078E00011231321AA6B6868DA41AB6B1224CB41D8
:1078F0005A40AB6B2036990A4A406B6A296859187E
:10790000521807230100D9410300E3414B40C1084D
:107910004B40D318099306230B22069C0399DC41A4
:10792000069BD3415C40069B0E32D341059A5C40D6
:10793000049B5340069A1340049A5340E418336A58
:107940000D22E418099B2B64E418079BE418019BA3
:107950009C46A444634607930223D941039BD34129
:1079600059401623039ADA41029B5140039A13436C
:107970003B409C46029A039B1A4063461A438A186E
:107980001319019311231322EC6B1221DC41EB6BD1
:10799000D3415C40EB6B9A0AAB6A5440C218A318FF
:1079A0000722AC680598D441AA68CA41716A54405C
:1079B0008C46AA680799D20854401C19069B049A61
:1079C0005840079B62441840059B6C644340101963
:1079D000181806230B22D941079BD3415940079B16
:1079E0000E32D34159400918CB1908930223019F45
:1079F0000C3ADF41019B0198D3417B40019F093242
:107A0000D741039A7B4002430298039F02400198AA
:107A100007401743DF197B18049311231322099899
:107A20001221D841099BD3415840099B9A0A5040E2
:107A3000AB68EA6A9A1883180722E868D041EA68B6
:107A4000CA415040EA680699D20850401818079B6E
:107A5000B76A5940BC46089B059A1940069B624488
:107A60004B401118591806230B22089FA864DF41C8
:107A7000089BD3415F40089B0E32D3415F40029B7D
:107A80007F18FB18059302230D21049ADA41049B09
:107A9000CB415A40049B0931CB415A409446049B48
:107AA0000199049A1943039B1940019B13400B430E
:107AB0006344DB190293270011231322DF412300C3
:107AC000D341296BEA687B40A40A57186340DC194C
:107AD000072312222F69DF412B69D3415F402B69B5
